{
  "contractName": "Channel",
  "abi": [
    {
      "constant": true,
      "inputs": [],
      "name": "channelRecipient",
      "outputs": [
        {
          "name": "",
          "type": "address"
        }
      ],
      "payable": false,
      "stateMutability": "view",
      "type": "function"
    },
    {
      "constant": true,
      "inputs": [],
      "name": "channelSender",
      "outputs": [
        {
          "name": "",
          "type": "address"
        }
      ],
      "payable": false,
      "stateMutability": "view",
      "type": "function"
    },
    {
      "constant": true,
      "inputs": [],
      "name": "startDate",
      "outputs": [
        {
          "name": "",
          "type": "uint256"
        }
      ],
      "payable": false,
      "stateMutability": "view",
      "type": "function"
    },
    {
      "constant": true,
      "inputs": [],
      "name": "channelTimeout",
      "outputs": [
        {
          "name": "",
          "type": "uint256"
        }
      ],
      "payable": false,
      "stateMutability": "view",
      "type": "function"
    },
    {
      "inputs": [
        {
          "name": "to",
          "type": "address"
        },
        {
          "name": "timeout",
          "type": "uint256"
        }
      ],
      "payable": true,
      "stateMutability": "payable",
      "type": "constructor"
    },
    {
      "constant": true,
      "inputs": [
        {
          "name": "h",
          "type": "bytes32"
        },
        {
          "name": "v",
          "type": "uint8"
        },
        {
          "name": "r",
          "type": "bytes32"
        },
        {
          "name": "s",
          "type": "bytes32"
        }
      ],
      "name": "getSigner",
      "outputs": [
        {
          "name": "",
          "type": "address"
        }
      ],
      "payable": false,
      "stateMutability": "pure",
      "type": "function"
    },
    {
      "constant": false,
      "inputs": [
        {
          "name": "h",
          "type": "bytes32"
        },
        {
          "name": "v",
          "type": "uint8"
        },
        {
          "name": "r",
          "type": "bytes32"
        },
        {
          "name": "s",
          "type": "bytes32"
        },
        {
          "name": "value",
          "type": "uint256"
        }
      ],
      "name": "closeChannel",
      "outputs": [],
      "payable": false,
      "stateMutability": "nonpayable",
      "type": "function"
    },
    {
      "constant": false,
      "inputs": [],
      "name": "ChannelTimeout",
      "outputs": [],
      "payable": false,
      "stateMutability": "nonpayable",
      "type": "function"
    }
  ],
  "bytecode": "0x6080604052604051604080610848833981018060405281019080805190602001909291908051906020019092919050505081600160006101000a81548173ffffffffffffffffffffffffffffffffffffffff021916908373ffffffffffffffffffffffffffffffffffffffff160217905550336000806101000a81548173ffffffffffffffffffffffffffffffffffffffff021916908373ffffffffffffffffffffffffffffffffffffffff16021790555042600281905550806003819055505050610778806100d06000396000f300608060405260043610610083576000357c0100000000000000000000000000000000000000000000000000000000900463ffffffff16806304758e7914610088578063075aa0c4146100df5780630b97bc86146101365780632ef2d55e14610161578063396582451461018c578063a5e84c26146101a3578063f96ddf7a14610207575b600080fd5b34801561009457600080fd5b5061009d6102a1565b604051808273ffffffffffffffffffffffffffffffffffffffff1673ffffffffffffffffffffffffffffffffffffffff16815260200191505060405180910390f35b3480156100eb57600080fd5b506100f46102c7565b604051808273ffffffffffffffffffffffffffffffffffffffff1673ffffffffffffffffffffffffffffffffffffffff16815260200191505060405180910390f35b34801561014257600080fd5b5061014b6102ec565b6040518082815260200191505060405180910390f35b34801561016d57600080fd5b506101766102f2565b6040518082815260200191505060405180910390f35b34801561019857600080fd5b506101a16102f8565b005b3480156101af57600080fd5b506102056004803603810190808035600019169060200190929190803560ff1690602001909291908035600019169060200190929190803560001916906020019092919080359060200190929190505050610346565b005b34801561021357600080fd5b5061025f6004803603810190808035600019169060200190929190803560ff169060200190929190803560001916906020019092919080356000191690602001909291905050506106bf565b604051808273ffffffffffffffffffffffffffffffffffffffff1673ffffffffffffffffffffffffffffffffffffffff16815260200191505060405180910390f35b600160009054906101000a900473ffffffffffffffffffffffffffffffffffffffff1681565b6000809054906101000a900473ffffffffffffffffffffffffffffffffffffffff1681565b60025481565b60035481565b426003546002540110151561030c57600080fd5b6000809054906101000a900473ffffffffffffffffffffffffffffffffffffffff1673ffffffffffffffffffffffffffffffffffffffff16ff5b600080600187878787604051600081526020016040526040518085600019166000191681526020018460ff1660ff1681526020018360001916600019168152602001826000191660001916815260200194505050505060206040516020810390808403906000865af11580156103c0573d6000803e3d6000fd5b5050506020604051035191506000809054906101000a900473ffffffffffffffffffffffffffffffffffffffff1673ffffffffffffffffffffffffffffffffffffffff168273ffffffffffffffffffffffffffffffffffffffff1614806104745750600160009054906101000a900473ffffffffffffffffffffffffffffffffffffffff1673ffffffffffffffffffffffffffffffffffffffff168273ffffffffffffffffffffffffffffffffffffffff16145b151561047f57600080fd5b3083604051808373ffffffffffffffffffffffffffffffffffffffff1673ffffffffffffffffffffffffffffffffffffffff166c010000000000000000000000000281526014018281526020019250505060405180910390209050866000191681600019161415156104f057600080fd5b600060046000836000191660001916815260200190815260200160002060009054906101000a900473ffffffffffffffffffffffffffffffffffffffff1673ffffffffffffffffffffffffffffffffffffffff1614156105a9578160046000836000191660001916815260200190815260200160002060006101000a81548173ffffffffffffffffffffffffffffffffffffffff021916908373ffffffffffffffffffffffffffffffffffffffff1602179055506106b6565b8173ffffffffffffffffffffffffffffffffffffffff1660046000836000191660001916815260200190815260200160002060009054906101000a900473ffffffffffffffffffffffffffffffffffffffff1673ffffffffffffffffffffffffffffffffffffffff161415156106b557600160009054906101000a900473ffffffffffffffffffffffffffffffffffffffff1673ffffffffffffffffffffffffffffffffffffffff166108fc849081150290604051600060405180830381858888f19350505050151561067b57600080fd5b6000809054906101000a900473ffffffffffffffffffffffffffffffffffffffff1673ffffffffffffffffffffffffffffffffffffffff16ff5b5b50505050505050565b6000600185858585604051600081526020016040526040518085600019166000191681526020018460ff1660ff1681526020018360001916600019168152602001826000191660001916815260200194505050505060206040516020810390808403906000865af1158015610738573d6000803e3d6000fd5b5050506020604051035190509493505050505600a165627a7a7230582083563a1c8e286bfa433bde29e25ba9c34a099858f88f3221a9e163fc403c0f3b0029",
  "source": "pragma solidity ^0.4.23;\n\ncontract Channel {\n\n  address public channelSender;\n  address public channelRecipient;\n  uint public startDate;\n  uint public channelTimeout;\n  mapping (bytes32 => address) signatures;\n\n  constructor(address to, uint timeout) public payable {\n    channelRecipient = to;\n    channelSender = msg.sender;\n    startDate = now;\n    channelTimeout = timeout;\n  }\n  \n  function getSigner(bytes32 h, uint8 v, bytes32 r, bytes32 s) pure returns(address) {\n        return ecrecover(h, v, r, s);\n  }\n\n  function closeChannel(bytes32 h, uint8 v, bytes32 r, bytes32 s, uint value) public{\n\n    address signer;\n    bytes32 proof;\n\n    // get signer from signature\n    signer = ecrecover(h, v, r, s);\n\n\n    // signature is invalid, throw\n    require(signer == channelSender || signer == channelRecipient);\n\n    // proof = keccak256(this, value);\n    proof = keccak256(address(this), value);\n\n    // signature is valid but doesn't match the data provided\n    require(proof == h);\n\n    if (signatures[proof] == 0)\n      signatures[proof] = signer;\n    else if (signatures[proof] != signer){\n      // channel completed, both signatures provided\n      require(channelRecipient.send(value));\n      selfdestruct(channelSender);\n    }\n\n  }\n\n  function ChannelTimeout(){\n    require(startDate + channelTimeout < now);\n\n    selfdestruct(channelSender);\n  }\n\n}\n",
  "sourcePath": "/home/jasoons/Documents/code/ethereum-meetup/state-channel/contracts/StateChannel.sol",
  "compiler": {
    "name": "solc",
    "version": "0.4.24+commit.e67f0147.Emscripten.clang"
  },
  "schemaVersion": "2.0.1",
  "updatedAt": "2018-10-23T10:29:47.795Z"
}